{
  "contractName": "MainContract",
  "abi": [
    {
      "inputs": [],
      "stateMutability": "nonpayable",
      "type": "constructor"
    },
    {
      "inputs": [
        {
          "internalType": "uint256",
          "name": "",
          "type": "uint256"
        }
      ],
      "name": "authorizedList",
      "outputs": [
        {
          "internalType": "uint256",
          "name": "registrationNumber",
          "type": "uint256"
        },
        {
          "internalType": "address",
          "name": "wallet",
          "type": "address"
        }
      ],
      "stateMutability": "view",
      "type": "function",
      "constant": true
    },
    {
      "inputs": [],
      "name": "authorizedListSize",
      "outputs": [
        {
          "internalType": "uint256",
          "name": "",
          "type": "uint256"
        }
      ],
      "stateMutability": "view",
      "type": "function",
      "constant": true
    },
    {
      "inputs": [
        {
          "internalType": "address",
          "name": "",
          "type": "address"
        },
        {
          "internalType": "uint256",
          "name": "",
          "type": "uint256"
        }
      ],
      "name": "donationRecords",
      "outputs": [
        {
          "internalType": "uint256",
          "name": "registrationNumber",
          "type": "uint256"
        },
        {
          "internalType": "address",
          "name": "wallet",
          "type": "address"
        },
        {
          "internalType": "uint256",
          "name": "amount",
          "type": "uint256"
        }
      ],
      "stateMutability": "view",
      "type": "function",
      "constant": true
    },
    {
      "inputs": [
        {
          "internalType": "uint256",
          "name": "",
          "type": "uint256"
        }
      ],
      "name": "enrolledNGOs",
      "outputs": [
        {
          "internalType": "string",
          "name": "name",
          "type": "string"
        },
        {
          "internalType": "string",
          "name": "description",
          "type": "string"
        },
        {
          "internalType": "address",
          "name": "wallet",
          "type": "address"
        },
        {
          "internalType": "uint256",
          "name": "registrationNumber",
          "type": "uint256"
        },
        {
          "internalType": "uint256",
          "name": "upvotes",
          "type": "uint256"
        }
      ],
      "stateMutability": "view",
      "type": "function",
      "constant": true
    },
    {
      "inputs": [],
      "name": "owner",
      "outputs": [
        {
          "internalType": "address",
          "name": "",
          "type": "address"
        }
      ],
      "stateMutability": "view",
      "type": "function",
      "constant": true
    },
    {
      "inputs": [
        {
          "internalType": "uint256",
          "name": "",
          "type": "uint256"
        }
      ],
      "name": "votedWallets",
      "outputs": [
        {
          "internalType": "address",
          "name": "",
          "type": "address"
        }
      ],
      "stateMutability": "view",
      "type": "function",
      "constant": true
    },
    {
      "inputs": [
        {
          "internalType": "uint256",
          "name": "registrationNumber",
          "type": "uint256"
        },
        {
          "internalType": "address",
          "name": "wallet",
          "type": "address"
        }
      ],
      "name": "addToAuthorizedNGO",
      "outputs": [],
      "stateMutability": "nonpayable",
      "type": "function"
    },
    {
      "inputs": [
        {
          "internalType": "string",
          "name": "name",
          "type": "string"
        },
        {
          "internalType": "string",
          "name": "description",
          "type": "string"
        },
        {
          "internalType": "address",
          "name": "wallet",
          "type": "address"
        },
        {
          "internalType": "uint256",
          "name": "registrationNumber",
          "type": "uint256"
        }
      ],
      "name": "enrollAsNGO",
      "outputs": [],
      "stateMutability": "nonpayable",
      "type": "function"
    },
    {
      "inputs": [],
      "name": "getOwner",
      "outputs": [
        {
          "internalType": "address",
          "name": "",
          "type": "address"
        }
      ],
      "stateMutability": "view",
      "type": "function",
      "constant": true
    },
    {
      "inputs": [],
      "name": "getAuthorizedList",
      "outputs": [
        {
          "components": [
            {
              "internalType": "uint256",
              "name": "registrationNumber",
              "type": "uint256"
            },
            {
              "internalType": "address",
              "name": "wallet",
              "type": "address"
            }
          ],
          "internalType": "struct MainContract.AuthorizedNGO[]",
          "name": "",
          "type": "tuple[]"
        }
      ],
      "stateMutability": "view",
      "type": "function",
      "constant": true
    },
    {
      "inputs": [
        {
          "internalType": "address",
          "name": "_newOwner",
          "type": "address"
        }
      ],
      "name": "changeOwner",
      "outputs": [],
      "stateMutability": "nonpayable",
      "type": "function"
    },
    {
      "inputs": [],
      "name": "getNGOList",
      "outputs": [
        {
          "components": [
            {
              "internalType": "string",
              "name": "name",
              "type": "string"
            },
            {
              "internalType": "string",
              "name": "description",
              "type": "string"
            },
            {
              "internalType": "address",
              "name": "wallet",
              "type": "address"
            },
            {
              "internalType": "uint256",
              "name": "registrationNumber",
              "type": "uint256"
            },
            {
              "internalType": "uint256",
              "name": "upvotes",
              "type": "uint256"
            }
          ],
          "internalType": "struct MainContract.NGO[]",
          "name": "",
          "type": "tuple[]"
        }
      ],
      "stateMutability": "view",
      "type": "function",
      "constant": true
    },
    {
      "inputs": [],
      "name": "myDonations",
      "outputs": [
        {
          "components": [
            {
              "internalType": "uint256",
              "name": "registrationNumber",
              "type": "uint256"
            },
            {
              "internalType": "address",
              "name": "wallet",
              "type": "address"
            },
            {
              "internalType": "uint256",
              "name": "amount",
              "type": "uint256"
            }
          ],
          "internalType": "struct MainContract.donationRecord[]",
          "name": "",
          "type": "tuple[]"
        }
      ],
      "stateMutability": "payable",
      "type": "function",
      "payable": true
    },
    {
      "inputs": [
        {
          "internalType": "address",
          "name": "ngoWallet",
          "type": "address"
        }
      ],
      "name": "upvote",
      "outputs": [],
      "stateMutability": "nonpayable",
      "type": "function"
    },
    {
      "inputs": [
        {
          "internalType": "address payable",
          "name": "ngoWallet",
          "type": "address"
        }
      ],
      "name": "donate",
      "outputs": [],
      "stateMutability": "payable",
      "type": "function",
      "payable": true
    }
  ],
  "bytecode": "0x608060405234801561001057600080fd5b50336000806101000a81548173ffffffffffffffffffffffffffffffffffffffff021916908373ffffffffffffffffffffffffffffffffffffffff1602179055506120dc806100606000396000f3fe6080604052600436106100e75760003560e01c806384a9d9041161008a578063a29e949611610059578063a29e9496146102c8578063a6f9dae1146102f3578063bd591ad21461031c578063d04477e41461035b576100e7565b806384a9d9041461021c578063893d20e8146102475780638da5cb5b146102725780639a1800c61461029d576100e7565b806335c19416116100c657806335c194161461014f57806346387f6a14610178578063620e8eb9146101b557806370838682146101f3576100e7565b8062362a95146100ec5780630839b596146101085780631a57f7b414610131575b600080fd5b6101066004803603810190610101919061141e565b61039c565b005b34801561011457600080fd5b5061012f600480360381019061012a9190611489565b610715565b005b6101396108f6565b60405161014691906115cf565b60405180910390f35b34801561015b57600080fd5b506101766004803603810190610171919061161d565b6109fc565b005b34801561018457600080fd5b5061019f600480360381019061019a919061165d565b610baa565b6040516101ac9190611699565b60405180910390f35b3480156101c157600080fd5b506101dc60048036038101906101d7919061165d565b610be9565b6040516101ea9291906116c3565b60405180910390f35b3480156101ff57600080fd5b5061021a60048036038101906102159190611832565b610c3d565b005b34801561022857600080fd5b50610231610e35565b60405161023e91906119af565b60405180910390f35b34801561025357600080fd5b5061025c610ef4565b6040516102699190611699565b60405180910390f35b34801561027e57600080fd5b50610287610f1d565b6040516102949190611699565b60405180910390f35b3480156102a957600080fd5b506102b2610f41565b6040516102bf91906119d1565b60405180910390f35b3480156102d457600080fd5b506102dd610f47565b6040516102ea9190611baa565b60405180910390f35b3480156102ff57600080fd5b5061031a60048036038101906103159190611489565b611134565b005b34801561032857600080fd5b50610343600480360381019061033e9190611bcc565b6111cf565b60405161035293929190611c0c565b60405180910390f35b34801561036757600080fd5b50610382600480360381019061037d919061165d565b611236565b604051610393959493929190611c8d565b60405180910390f35b6000349050600081116103ae57600080fd5b8173ffffffffffffffffffffffffffffffffffffffff166108fc349081150290604051600060405180830381858888f193505050501580156103f4573d6000803e3d6000fd5b5060005b6004805490508110156107105760006004828154811061041b5761041a611cee565b5b90600052602060002090600502016040518060a001604052908160008201805461044490611d4c565b80601f016020809104026020016040519081016040528092919081815260200182805461047090611d4c565b80156104bd5780601f10610492576101008083540402835291602001916104bd565b820191906000526020600020905b8154815290600101906020018083116104a057829003601f168201915b505050505081526020016001820180546104d690611d4c565b80601f016020809104026020016040519081016040528092919081815260200182805461050290611d4c565b801561054f5780601f106105245761010080835404028352916020019161054f565b820191906000526020600020905b81548152906001019060200180831161053257829003601f168201915b505050505081526020016002820160009054906101000a900473ffffffffffffffffffffffffffffffffffffffff1673ffffffffffffffffffffffffffffffffffffffff1673ffffffffffffffffffffffffffffffffffffffff1681526020016003820154815260200160048201548152505090508373ffffffffffffffffffffffffffffffffffffffff16816040015173ffffffffffffffffffffffffffffffffffffffff16036106fc5760006040518060600160405280836060015181526020018673ffffffffffffffffffffffffffffffffffffffff168152602001348152509050600260003373ffffffffffffffffffffffffffffffffffffffff1673ffffffffffffffffffffffffffffffffffffffff1681526020019081526020016000208190806001815401808255809150506001900390600052602060002090600302016000909190919091506000820151816000015560208201518160010160006101000a81548173ffffffffffffffffffffffffffffffffffffffff021916908373ffffffffffffffffffffffffffffffffffffffff160217905550604082015181600201555050505b50808061070890611dac565b9150506103f8565b505050565b60005b6005805490508110156107af576005818154811061073957610738611cee565b5b9060005260206000200160009054906101000a900473ffffffffffffffffffffffffffffffffffffffff1673ffffffffffffffffffffffffffffffffffffffff163373ffffffffffffffffffffffffffffffffffffffff160361079c57506108f3565b80806107a790611dac565b915050610718565b5060005b6004805490508110156108f1578173ffffffffffffffffffffffffffffffffffffffff16600482815481106107eb576107ea611cee565b5b906000526020600020906005020160020160009054906101000a900473ffffffffffffffffffffffffffffffffffffffff1673ffffffffffffffffffffffffffffffffffffffff16036108de5760016004828154811061084e5761084d611cee565b5b9060005260206000209060050201600401600082825461086e9190611df4565b925050819055506005339080600181540180825580915050600190039060005260206000200160009091909190916101000a81548173ffffffffffffffffffffffffffffffffffffffff021916908373ffffffffffffffffffffffffffffffffffffffff160217905550506108f3565b80806108e990611dac565b9150506107b3565b505b50565b6060600260003373ffffffffffffffffffffffffffffffffffffffff1673ffffffffffffffffffffffffffffffffffffffff168152602001908152602001600020805480602002602001604051908101604052809291908181526020016000905b828210156109f35783829060005260206000209060030201604051806060016040529081600082015481526020016001820160009054906101000a900473ffffffffffffffffffffffffffffffffffffffff1673ffffffffffffffffffffffffffffffffffffffff1673ffffffffffffffffffffffffffffffffffffffff16815260200160028201548152505081526020019060010190610957565b50505050905090565b60008054906101000a900473ffffffffffffffffffffffffffffffffffffffff1673ffffffffffffffffffffffffffffffffffffffff163373ffffffffffffffffffffffffffffffffffffffff1614610a5457600080fd5b60005b600380549050811015610af55760038181548110610a7857610a77611cee565b5b906000526020600020906002020160010160009054906101000a900473ffffffffffffffffffffffffffffffffffffffff1673ffffffffffffffffffffffffffffffffffffffff168273ffffffffffffffffffffffffffffffffffffffff1603610ae25750610ba6565b8080610aed90611dac565b915050610a57565b50600060405180604001604052808481526020018373ffffffffffffffffffffffffffffffffffffffff16815250905060038190806001815401808255809150506001900390600052602060002090600202016000909190919091506000820151816000015560208201518160010160006101000a81548173ffffffffffffffffffffffffffffffffffffffff021916908373ffffffffffffffffffffffffffffffffffffffff1602179055505050505b5050565b60058181548110610bba57600080fd5b906000526020600020016000915054906101000a900473ffffffffffffffffffffffffffffffffffffffff1681565b60038181548110610bf957600080fd5b90600052602060002090600202016000915090508060000154908060010160009054906101000a900473ffffffffffffffffffffffffffffffffffffffff16905082565b8173ffffffffffffffffffffffffffffffffffffffff163373ffffffffffffffffffffffffffffffffffffffff1614610c7557600080fd5b60005b600380549050811015610e2e57600060038281548110610c9b57610c9a611cee565b5b9060005260206000209060020201604051806040016040529081600082015481526020016001820160009054906101000a900473ffffffffffffffffffffffffffffffffffffffff1673ffffffffffffffffffffffffffffffffffffffff1673ffffffffffffffffffffffffffffffffffffffff1681525050905082816000015103610e1a5760006040518060a001604052808881526020018781526020018673ffffffffffffffffffffffffffffffffffffffff1681526020018581526020016000815250905060048190806001815401808255809150506001900390600052602060002090600502016000909190919091506000820151816000019081610da49190611fd4565b506020820151816001019081610dba9190611fd4565b5060408201518160020160006101000a81548173ffffffffffffffffffffffffffffffffffffffff021916908373ffffffffffffffffffffffffffffffffffffffff16021790555060608201518160030155608082015181600401555050505b508080610e2690611dac565b915050610c78565b5050505050565b60606003805480602002602001604051908101604052809291908181526020016000905b82821015610eeb5783829060005260206000209060020201604051806040016040529081600082015481526020016001820160009054906101000a900473ffffffffffffffffffffffffffffffffffffffff1673ffffffffffffffffffffffffffffffffffffffff1673ffffffffffffffffffffffffffffffffffffffff168152505081526020019060010190610e59565b50505050905090565b60008060009054906101000a900473ffffffffffffffffffffffffffffffffffffffff16905090565b60008054906101000a900473ffffffffffffffffffffffffffffffffffffffff1681565b60015481565b60606004805480602002602001604051908101604052809291908181526020016000905b8282101561112b57838290600052602060002090600502016040518060a0016040529081600082018054610f9e90611d4c565b80601f0160208091040260200160405190810160405280929190818152602001828054610fca90611d4c565b80156110175780601f10610fec57610100808354040283529160200191611017565b820191906000526020600020905b815481529060010190602001808311610ffa57829003601f168201915b5050505050815260200160018201805461103090611d4c565b80601f016020809104026020016040519081016040528092919081815260200182805461105c90611d4c565b80156110a95780601f1061107e576101008083540402835291602001916110a9565b820191906000526020600020905b81548152906001019060200180831161108c57829003601f168201915b505050505081526020016002820160009054906101000a900473ffffffffffffffffffffffffffffffffffffffff1673ffffffffffffffffffffffffffffffffffffffff1673ffffffffffffffffffffffffffffffffffffffff1681526020016003820154815260200160048201548152505081526020019060010190610f6b565b50505050905090565b60008054906101000a900473ffffffffffffffffffffffffffffffffffffffff1673ffffffffffffffffffffffffffffffffffffffff163373ffffffffffffffffffffffffffffffffffffffff161461118c57600080fd5b806000806101000a81548173ffffffffffffffffffffffffffffffffffffffff021916908373ffffffffffffffffffffffffffffffffffffffff16021790555050565b600260205281600052604060002081815481106111eb57600080fd5b9060005260206000209060030201600091509150508060000154908060010160009054906101000a900473ffffffffffffffffffffffffffffffffffffffff16908060020154905083565b6004818154811061124657600080fd5b906000526020600020906005020160009150905080600001805461126990611d4c565b80601f016020809104026020016040519081016040528092919081815260200182805461129590611d4c565b80156112e25780601f106112b7576101008083540402835291602001916112e2565b820191906000526020600020905b8154815290600101906020018083116112c557829003601f168201915b5050505050908060010180546112f790611d4c565b80601f016020809104026020016040519081016040528092919081815260200182805461132390611d4c565b80156113705780601f1061134557610100808354040283529160200191611370565b820191906000526020600020905b81548152906001019060200180831161135357829003601f168201915b5050505050908060020160009054906101000a900473ffffffffffffffffffffffffffffffffffffffff16908060030154908060040154905085565b6000604051905090565b600080fd5b600080fd5b600073ffffffffffffffffffffffffffffffffffffffff82169050919050565b60006113eb826113c0565b9050919050565b6113fb816113e0565b811461140657600080fd5b50565b600081359050611418816113f2565b92915050565b600060208284031215611434576114336113b6565b5b600061144284828501611409565b91505092915050565b6000611456826113c0565b9050919050565b6114668161144b565b811461147157600080fd5b50565b6000813590506114838161145d565b92915050565b60006020828403121561149f5761149e6113b6565b5b60006114ad84828501611474565b91505092915050565b600081519050919050565b600082825260208201905092915050565b6000819050602082019050919050565b6000819050919050565b6114f5816114e2565b82525050565b6115048161144b565b82525050565b60608201600082015161152060008501826114ec565b50602082015161153360208501826114fb565b50604082015161154660408501826114ec565b50505050565b6000611558838361150a565b60608301905092915050565b6000602082019050919050565b600061157c826114b6565b61158681856114c1565b9350611591836114d2565b8060005b838110156115c25781516115a9888261154c565b97506115b483611564565b925050600181019050611595565b5085935050505092915050565b600060208201905081810360008301526115e98184611571565b905092915050565b6115fa816114e2565b811461160557600080fd5b50565b600081359050611617816115f1565b92915050565b60008060408385031215611634576116336113b6565b5b600061164285828601611608565b925050602061165385828601611474565b9150509250929050565b600060208284031215611673576116726113b6565b5b600061168184828501611608565b91505092915050565b6116938161144b565b82525050565b60006020820190506116ae600083018461168a565b92915050565b6116bd816114e2565b82525050565b60006040820190506116d860008301856116b4565b6116e5602083018461168a565b9392505050565b600080fd5b600080fd5b6000601f19601f8301169050919050565b7f4e487b7100000000000000000000000000000000000000000000000000000000600052604160045260246000fd5b61173f826116f6565b810181811067ffffffffffffffff8211171561175e5761175d611707565b5b80604052505050565b60006117716113ac565b905061177d8282611736565b919050565b600067ffffffffffffffff82111561179d5761179c611707565b5b6117a6826116f6565b9050602081019050919050565b82818337600083830152505050565b60006117d56117d084611782565b611767565b9050828152602081018484840111156117f1576117f06116f1565b5b6117fc8482856117b3565b509392505050565b600082601f830112611819576118186116ec565b5b81356118298482602086016117c2565b91505092915050565b6000806000806080858703121561184c5761184b6113b6565b5b600085013567ffffffffffffffff81111561186a576118696113bb565b5b61187687828801611804565b945050602085013567ffffffffffffffff811115611897576118966113bb565b5b6118a387828801611804565b93505060406118b487828801611474565b92505060606118c587828801611608565b91505092959194509250565b600081519050919050565b600082825260208201905092915050565b6000819050602082019050919050565b60408201600082015161191360008501826114ec565b50602082015161192660208501826114fb565b50505050565b600061193883836118fd565b60408301905092915050565b6000602082019050919050565b600061195c826118d1565b61196681856118dc565b9350611971836118ed565b8060005b838110156119a2578151611989888261192c565b975061199483611944565b925050600181019050611975565b5085935050505092915050565b600060208201905081810360008301526119c98184611951565b905092915050565b60006020820190506119e660008301846116b4565b92915050565b600081519050919050565b600082825260208201905092915050565b6000819050602082019050919050565b600081519050919050565b600082825260208201905092915050565b60005b83811015611a52578082015181840152602081019050611a37565b60008484015250505050565b6000611a6982611a18565b611a738185611a23565b9350611a83818560208601611a34565b611a8c816116f6565b840191505092915050565b600060a0830160008301518482036000860152611ab48282611a5e565b91505060208301518482036020860152611ace8282611a5e565b9150506040830151611ae360408601826114fb565b506060830151611af660608601826114ec565b506080830151611b0960808601826114ec565b508091505092915050565b6000611b208383611a97565b905092915050565b6000602082019050919050565b6000611b40826119ec565b611b4a81856119f7565b935083602082028501611b5c85611a08565b8060005b85811015611b985784840389528151611b798582611b14565b9450611b8483611b28565b925060208a01995050600181019050611b60565b50829750879550505050505092915050565b60006020820190508181036000830152611bc48184611b35565b905092915050565b60008060408385031215611be357611be26113b6565b5b6000611bf185828601611474565b9250506020611c0285828601611608565b9150509250929050565b6000606082019050611c2160008301866116b4565b611c2e602083018561168a565b611c3b60408301846116b4565b949350505050565b600082825260208201905092915050565b6000611c5f82611a18565b611c698185611c43565b9350611c79818560208601611a34565b611c82816116f6565b840191505092915050565b600060a0820190508181036000830152611ca78188611c54565b90508181036020830152611cbb8187611c54565b9050611cca604083018661168a565b611cd760608301856116b4565b611ce460808301846116b4565b9695505050505050565b7f4e487b7100000000000000000000000000000000000000000000000000000000600052603260045260246000fd5b7f4e487b7100000000000000000000000000000000000000000000000000000000600052602260045260246000fd5b60006002820490506001821680611d6457607f821691505b602082108103611d7757611d76611d1d565b5b50919050565b7f4e487b7100000000000000000000000000000000000000000000000000000000600052601160045260246000fd5b6000611db7826114e2565b91507fffffffffffffffffffffffffffffffffffffffffffffffffffffffffffffffff8203611de957611de8611d7d565b5b600182019050919050565b6000611dff826114e2565b9150611e0a836114e2565b9250828201905080821115611e2257611e21611d7d565b5b92915050565b60008190508160005260206000209050919050565b60006020601f8301049050919050565b600082821b905092915050565b600060088302611e8a7fffffffffffffffffffffffffffffffffffffffffffffffffffffffffffffffff82611e4d565b611e948683611e4d565b95508019841693508086168417925050509392505050565b6000819050919050565b6000611ed1611ecc611ec7846114e2565b611eac565b6114e2565b9050919050565b6000819050919050565b611eeb83611eb6565b611eff611ef782611ed8565b848454611e5a565b825550505050565b600090565b611f14611f07565b611f1f818484611ee2565b505050565b5b81811015611f4357611f38600082611f0c565b600181019050611f25565b5050565b601f821115611f8857611f5981611e28565b611f6284611e3d565b81016020851015611f71578190505b611f85611f7d85611e3d565b830182611f24565b50505b505050565b600082821c905092915050565b6000611fab60001984600802611f8d565b1980831691505092915050565b6000611fc48383611f9a565b9150826002028217905092915050565b611fdd82611a18565b67ffffffffffffffff811115611ff657611ff5611707565b5b6120008254611d4c565b61200b828285611f47565b600060209050601f83116001811461203e576000841561202c578287015190505b6120368582611fb8565b86555061209e565b601f19841661204c86611e28565b60005b828110156120745784890151825560018201915060208501945060208101905061204f565b86831015612091578489015161208d601f891682611f9a565b8355505b6001600288020188555050505b50505050505056fea26469706673582212201c110345651e0b354aa28859b9c4efcc9fdb688fa0d8ae05089cd5a27b323e2a64736f6c63430008110033",
  "immutableReferences": {},
  "source": "// SPDX-License-Identifier: MIT\r\npragma solidity >=0.4.22 <0.9.0;\r\n\r\ncontract MainContract{\r\n\r\n    address public owner;\r\n    uint256 public authorizedListSize;\r\n\r\n    constructor(){\r\n        owner = msg.sender;\r\n    }\r\n    \r\n    struct NGO{\r\n        string name;\r\n        string description;\r\n        address wallet;\r\n        uint256 registrationNumber;\r\n        uint256 upvotes;\r\n    }\r\n\r\n    struct AuthorizedNGO{\r\n        uint256 registrationNumber;\r\n        address wallet;\r\n    }\r\n\r\n    struct donationRecord{\r\n        uint256 registrationNumber;\r\n        address wallet;\r\n        uint256 amount;\r\n    }\r\n\r\n    mapping(address => donationRecord[]) public donationRecords;  \r\n    AuthorizedNGO[] public authorizedList;\r\n    NGO[] public enrolledNGOs;\r\n    address[] public votedWallets;\r\n\r\n    function addToAuthorizedNGO(uint256 registrationNumber, address wallet) public {\r\n        require(msg.sender == owner);\r\n        for(uint i = 0; i < authorizedList.length; i++){\r\n            if(wallet == authorizedList[i].wallet){\r\n                return;\r\n            }\r\n        }\r\n        AuthorizedNGO memory newAuthorizedNGO = AuthorizedNGO(registrationNumber, wallet);\r\n        authorizedList.push(newAuthorizedNGO);\r\n    }\r\n\r\n    function enrollAsNGO(string memory name, string memory description, address  wallet, uint256 registrationNumber ) external {\r\n        require(msg.sender == wallet);\r\n        \r\n        for (uint i = 0; i < authorizedList.length; i++) {\r\n            AuthorizedNGO memory currentNGO = authorizedList[i];\r\n            if(currentNGO.registrationNumber == registrationNumber){\r\n                NGO memory newNGO = NGO(name, description, wallet, registrationNumber, 0);\r\n                enrolledNGOs.push(newNGO);\r\n            }\r\n        }\r\n    }\r\n\r\n    function getOwner() public view returns(address){\r\n        return owner;\r\n    }\r\n\r\n    function getAuthorizedList() public view returns(AuthorizedNGO[] memory){\r\n        return authorizedList;\r\n    } \r\n\r\n    function changeOwner(address _newOwner) public {\r\n        require(msg.sender == owner);\r\n        owner = _newOwner;\r\n    }\r\n\r\n    function getNGOList() external view returns(NGO[] memory) {\r\n        return enrolledNGOs;\r\n    }\r\n\r\n    function myDonations() public payable returns(donationRecord[] memory){\r\n        return donationRecords[msg.sender];\r\n    }\r\n\r\n    function upvote(address ngoWallet) public {\r\n        for (uint i = 0; i < votedWallets.length; i++){\r\n            if(msg.sender == votedWallets[i]){\r\n                return;\r\n            } \r\n        }\r\n        for (uint i = 0; i < enrolledNGOs.length; i++) {\r\n            if(enrolledNGOs[i].wallet == ngoWallet){\r\n                enrolledNGOs[i].upvotes += 1;\r\n                votedWallets.push(msg.sender);\r\n                return;\r\n            }\r\n        }\r\n    }\r\n\r\n    function donate(address payable ngoWallet) external payable {\r\n        uint256 amount = msg.value;\r\n        require(amount > 0);\r\n        ngoWallet.transfer(msg.value);\r\n        for (uint i = 0; i < enrolledNGOs.length; i++) {\r\n            NGO memory currentNGO = enrolledNGOs[i];\r\n            if(currentNGO.wallet == ngoWallet){\r\n                donationRecord memory newDonationRecord = donationRecord(currentNGO.registrationNumber, ngoWallet, msg.value);\r\n                donationRecords[msg.sender].push(newDonationRecord);\r\n            }\r\n        }\r\n    }\r\n\r\n}\r\n",
  "sourcePath": "D:\\Anshul\\COLLEGE_STUDY_MATERIAL\\sem6\\semp_project\\sempII\\truffle\\contracts\\MainContract.sol",
  "compiler": {
    "name": "solc",
    "version": "0.8.17+commit.8df45f5f.Emscripten.clang"
  },
  "schemaVersion": "3.4.11",
  "updatedAt": "2023-03-24T18:54:48.509Z",
  "networkType": "ethereum",
  "devdoc": {
    "kind": "dev",
    "methods": {},
    "version": 1
  },
  "userdoc": {
    "kind": "user",
    "methods": {},
    "version": 1
  }
}