{
  "contractName": "MainContract",
  "abi": [
    {
      "inputs": [],
      "stateMutability": "nonpayable",
      "type": "constructor"
    },
    {
      "inputs": [],
      "name": "authorizedListSize",
      "outputs": [
        {
          "internalType": "uint256",
          "name": "",
          "type": "uint256"
        }
      ],
      "stateMutability": "view",
      "type": "function",
      "constant": true
    },
    {
      "inputs": [],
      "name": "owner",
      "outputs": [
        {
          "internalType": "address",
          "name": "",
          "type": "address"
        }
      ],
      "stateMutability": "view",
      "type": "function",
      "constant": true
    },
    {
      "inputs": [],
      "name": "temp",
      "outputs": [
        {
          "internalType": "uint256",
          "name": "",
          "type": "uint256"
        }
      ],
      "stateMutability": "view",
      "type": "function",
      "constant": true
    },
    {
      "inputs": [
        {
          "internalType": "uint256",
          "name": "registrationNumber",
          "type": "uint256"
        },
        {
          "internalType": "address",
          "name": "wallet",
          "type": "address"
        }
      ],
      "name": "addToAuthorizedNGO",
      "outputs": [],
      "stateMutability": "nonpayable",
      "type": "function"
    },
    {
      "inputs": [
        {
          "internalType": "string",
          "name": "name",
          "type": "string"
        },
        {
          "internalType": "string",
          "name": "description",
          "type": "string"
        },
        {
          "internalType": "address",
          "name": "wallet",
          "type": "address"
        },
        {
          "internalType": "uint256",
          "name": "registrationNumber",
          "type": "uint256"
        }
      ],
      "name": "enrollAsNGO",
      "outputs": [],
      "stateMutability": "nonpayable",
      "type": "function"
    },
    {
      "inputs": [],
      "name": "getOwner",
      "outputs": [
        {
          "internalType": "address",
          "name": "",
          "type": "address"
        }
      ],
      "stateMutability": "view",
      "type": "function",
      "constant": true
    },
    {
      "inputs": [
        {
          "internalType": "address",
          "name": "_newOwner",
          "type": "address"
        }
      ],
      "name": "changeOwner",
      "outputs": [],
      "stateMutability": "nonpayable",
      "type": "function"
    },
    {
      "inputs": [],
      "name": "getNGOList",
      "outputs": [
        {
          "components": [
            {
              "internalType": "string",
              "name": "name",
              "type": "string"
            },
            {
              "internalType": "string",
              "name": "description",
              "type": "string"
            },
            {
              "internalType": "address",
              "name": "wallet",
              "type": "address"
            },
            {
              "internalType": "uint256",
              "name": "registrationNumber",
              "type": "uint256"
            },
            {
              "internalType": "uint256",
              "name": "upvotes",
              "type": "uint256"
            }
          ],
          "internalType": "struct MainContract.NGO[]",
          "name": "",
          "type": "tuple[]"
        }
      ],
      "stateMutability": "view",
      "type": "function",
      "constant": true
    },
    {
      "inputs": [],
      "name": "getDonors",
      "outputs": [
        {
          "internalType": "address[]",
          "name": "",
          "type": "address[]"
        }
      ],
      "stateMutability": "view",
      "type": "function",
      "constant": true
    },
    {
      "inputs": [],
      "name": "myDonations",
      "outputs": [
        {
          "components": [
            {
              "internalType": "uint256",
              "name": "registrationNumber",
              "type": "uint256"
            },
            {
              "internalType": "address",
              "name": "wallet",
              "type": "address"
            },
            {
              "internalType": "uint256",
              "name": "amount",
              "type": "uint256"
            }
          ],
          "internalType": "struct MainContract.donationRecord[]",
          "name": "",
          "type": "tuple[]"
        }
      ],
      "stateMutability": "payable",
      "type": "function",
      "payable": true
    },
    {
      "inputs": [
        {
          "internalType": "address payable",
          "name": "ngoWallet",
          "type": "address"
        }
      ],
      "name": "donate",
      "outputs": [],
      "stateMutability": "payable",
      "type": "function",
      "payable": true
    }
  ],
  "bytecode": "0x608060405234801561001057600080fd5b50336000806101000a81548173ffffffffffffffffffffffffffffffffffffffff021916908373ffffffffffffffffffffffffffffffffffffffff1602179055506117cc806100606000396000f3fe60806040526004361061009b5760003560e01c8063893d20e811610064578063893d20e8146101575780638da5cb5b1461018257806396f300d4146101ad5780639a1800c6146101d8578063a29e949614610203578063a6f9dae11461022e5761009b565b8062362a95146100a05780631a57f7b4146100bc57806335c19416146100da578063673402e514610103578063708386821461012e575b600080fd5b6100ba60048036038101906100b59190610ce9565b610257565b005b6100c4610502565b6040516100d19190610e41565b60405180910390f35b3480156100e657600080fd5b5061010160048036038101906100fc9190610ebb565b610608565b005b34801561010f57600080fd5b50610118610713565b6040516101259190610f0a565b60405180910390f35b34801561013a57600080fd5b506101556004803603810190610150919061106b565b610719565b005b34801561016357600080fd5b5061016c61090e565b6040516101799190611119565b60405180910390f35b34801561018e57600080fd5b50610197610937565b6040516101a49190611119565b60405180910390f35b3480156101b957600080fd5b506101c261095b565b6040516101cf91906111e3565b60405180910390f35b3480156101e457600080fd5b506101ed6109e9565b6040516101fa9190610f0a565b60405180910390f35b34801561020f57600080fd5b506102186109ef565b60405161022591906113c3565b60405180910390f35b34801561023a57600080fd5b50610255600480360381019061025091906113e5565b610bdc565b005b60003490506000811161026957600080fd5b8173ffffffffffffffffffffffffffffffffffffffff166108fc349081150290604051600060405180830381858888f193505050501580156102af573d6000803e3d6000fd5b506006339080600181540180825580915050600190039060005260206000200160009091909190916101000a81548173ffffffffffffffffffffffffffffffffffffffff021916908373ffffffffffffffffffffffffffffffffffffffff16021790555060005b6001548110156104fd5760006004828154811061033657610335611412565b5b9060005260206000209060020201604051806040016040529081600082015481526020016001820160009054906101000a900473ffffffffffffffffffffffffffffffffffffffff1673ffffffffffffffffffffffffffffffffffffffff1673ffffffffffffffffffffffffffffffffffffffff168152505090508373ffffffffffffffffffffffffffffffffffffffff16816020015173ffffffffffffffffffffffffffffffffffffffff16036104e95760006040518060600160405280836000015181526020018673ffffffffffffffffffffffffffffffffffffffff168152602001348152509050600360003373ffffffffffffffffffffffffffffffffffffffff1673ffffffffffffffffffffffffffffffffffffffff1681526020019081526020016000208190806001815401808255809150506001900390600052602060002090600302016000909190919091506000820151816000015560208201518160010160006101000a81548173ffffffffffffffffffffffffffffffffffffffff021916908373ffffffffffffffffffffffffffffffffffffffff160217905550604082015181600201555050505b5080806104f590611470565b915050610316565b505050565b6060600360003373ffffffffffffffffffffffffffffffffffffffff1673ffffffffffffffffffffffffffffffffffffffff168152602001908152602001600020805480602002602001604051908101604052809291908181526020016000905b828210156105ff5783829060005260206000209060030201604051806060016040529081600082015481526020016001820160009054906101000a900473ffffffffffffffffffffffffffffffffffffffff1673ffffffffffffffffffffffffffffffffffffffff1673ffffffffffffffffffffffffffffffffffffffff16815260200160028201548152505081526020019060010190610563565b50505050905090565b60008054906101000a900473ffffffffffffffffffffffffffffffffffffffff1673ffffffffffffffffffffffffffffffffffffffff163373ffffffffffffffffffffffffffffffffffffffff161461066057600080fd5b600060405180604001604052808481526020018373ffffffffffffffffffffffffffffffffffffffff16815250905060048190806001815401808255809150506001900390600052602060002090600202016000909190919091506000820151816000015560208201518160010160006101000a81548173ffffffffffffffffffffffffffffffffffffffff021916908373ffffffffffffffffffffffffffffffffffffffff1602179055505050505050565b60025481565b8173ffffffffffffffffffffffffffffffffffffffff163373ffffffffffffffffffffffffffffffffffffffff161461075157600080fd5b60005b6001548110156109075760006004828154811061077457610773611412565b5b9060005260206000209060020201604051806040016040529081600082015481526020016001820160009054906101000a900473ffffffffffffffffffffffffffffffffffffffff1673ffffffffffffffffffffffffffffffffffffffff1673ffffffffffffffffffffffffffffffffffffffff16815250509050828160000151036108f35760006040518060a001604052808881526020018781526020018673ffffffffffffffffffffffffffffffffffffffff168152602001858152602001600081525090506005819080600181540180825580915050600190039060005260206000209060050201600090919091909150600082015181600001908161087d91906116c4565b50602082015181600101908161089391906116c4565b5060408201518160020160006101000a81548173ffffffffffffffffffffffffffffffffffffffff021916908373ffffffffffffffffffffffffffffffffffffffff16021790555060608201518160030155608082015181600401555050505b5080806108ff90611470565b915050610754565b5050505050565b60008060009054906101000a900473ffffffffffffffffffffffffffffffffffffffff16905090565b60008054906101000a900473ffffffffffffffffffffffffffffffffffffffff1681565b606060068054806020026020016040519081016040528092919081815260200182805480156109df57602002820191906000526020600020905b8160009054906101000a900473ffffffffffffffffffffffffffffffffffffffff1673ffffffffffffffffffffffffffffffffffffffff1681526020019060010190808311610995575b5050505050905090565b60015481565b60606005805480602002602001604051908101604052809291908181526020016000905b82821015610bd357838290600052602060002090600502016040518060a0016040529081600082018054610a46906114e7565b80601f0160208091040260200160405190810160405280929190818152602001828054610a72906114e7565b8015610abf5780601f10610a9457610100808354040283529160200191610abf565b820191906000526020600020905b815481529060010190602001808311610aa257829003601f168201915b50505050508152602001600182018054610ad8906114e7565b80601f0160208091040260200160405190810160405280929190818152602001828054610b04906114e7565b8015610b515780601f10610b2657610100808354040283529160200191610b51565b820191906000526020600020905b815481529060010190602001808311610b3457829003601f168201915b505050505081526020016002820160009054906101000a900473ffffffffffffffffffffffffffffffffffffffff1673ffffffffffffffffffffffffffffffffffffffff1673ffffffffffffffffffffffffffffffffffffffff1681526020016003820154815260200160048201548152505081526020019060010190610a13565b50505050905090565b60008054906101000a900473ffffffffffffffffffffffffffffffffffffffff1673ffffffffffffffffffffffffffffffffffffffff163373ffffffffffffffffffffffffffffffffffffffff1614610c3457600080fd5b806000806101000a81548173ffffffffffffffffffffffffffffffffffffffff021916908373ffffffffffffffffffffffffffffffffffffffff16021790555050565b6000604051905090565b600080fd5b600080fd5b600073ffffffffffffffffffffffffffffffffffffffff82169050919050565b6000610cb682610c8b565b9050919050565b610cc681610cab565b8114610cd157600080fd5b50565b600081359050610ce381610cbd565b92915050565b600060208284031215610cff57610cfe610c81565b5b6000610d0d84828501610cd4565b91505092915050565b600081519050919050565b600082825260208201905092915050565b6000819050602082019050919050565b6000819050919050565b610d5581610d42565b82525050565b6000610d6682610c8b565b9050919050565b610d7681610d5b565b82525050565b606082016000820151610d926000850182610d4c565b506020820151610da56020850182610d6d565b506040820151610db86040850182610d4c565b50505050565b6000610dca8383610d7c565b60608301905092915050565b6000602082019050919050565b6000610dee82610d16565b610df88185610d21565b9350610e0383610d32565b8060005b83811015610e34578151610e1b8882610dbe565b9750610e2683610dd6565b925050600181019050610e07565b5085935050505092915050565b60006020820190508181036000830152610e5b8184610de3565b905092915050565b610e6c81610d42565b8114610e7757600080fd5b50565b600081359050610e8981610e63565b92915050565b610e9881610d5b565b8114610ea357600080fd5b50565b600081359050610eb581610e8f565b92915050565b60008060408385031215610ed257610ed1610c81565b5b6000610ee085828601610e7a565b9250506020610ef185828601610ea6565b9150509250929050565b610f0481610d42565b82525050565b6000602082019050610f1f6000830184610efb565b92915050565b600080fd5b600080fd5b6000601f19601f8301169050919050565b7f4e487b7100000000000000000000000000000000000000000000000000000000600052604160045260246000fd5b610f7882610f2f565b810181811067ffffffffffffffff82111715610f9757610f96610f40565b5b80604052505050565b6000610faa610c77565b9050610fb68282610f6f565b919050565b600067ffffffffffffffff821115610fd657610fd5610f40565b5b610fdf82610f2f565b9050602081019050919050565b82818337600083830152505050565b600061100e61100984610fbb565b610fa0565b90508281526020810184848401111561102a57611029610f2a565b5b611035848285610fec565b509392505050565b600082601f83011261105257611051610f25565b5b8135611062848260208601610ffb565b91505092915050565b6000806000806080858703121561108557611084610c81565b5b600085013567ffffffffffffffff8111156110a3576110a2610c86565b5b6110af8782880161103d565b945050602085013567ffffffffffffffff8111156110d0576110cf610c86565b5b6110dc8782880161103d565b93505060406110ed87828801610ea6565b92505060606110fe87828801610e7a565b91505092959194509250565b61111381610d5b565b82525050565b600060208201905061112e600083018461110a565b92915050565b600081519050919050565b600082825260208201905092915050565b6000819050602082019050919050565b600061116c8383610d6d565b60208301905092915050565b6000602082019050919050565b600061119082611134565b61119a818561113f565b93506111a583611150565b8060005b838110156111d65781516111bd8882611160565b97506111c883611178565b9250506001810190506111a9565b5085935050505092915050565b600060208201905081810360008301526111fd8184611185565b905092915050565b600081519050919050565b600082825260208201905092915050565b6000819050602082019050919050565b600081519050919050565b600082825260208201905092915050565b60005b8381101561126b578082015181840152602081019050611250565b60008484015250505050565b600061128282611231565b61128c818561123c565b935061129c81856020860161124d565b6112a581610f2f565b840191505092915050565b600060a08301600083015184820360008601526112cd8282611277565b915050602083015184820360208601526112e78282611277565b91505060408301516112fc6040860182610d6d565b50606083015161130f6060860182610d4c565b5060808301516113226080860182610d4c565b508091505092915050565b600061133983836112b0565b905092915050565b6000602082019050919050565b600061135982611205565b6113638185611210565b93508360208202850161137585611221565b8060005b858110156113b15784840389528151611392858261132d565b945061139d83611341565b925060208a01995050600181019050611379565b50829750879550505050505092915050565b600060208201905081810360008301526113dd818461134e565b905092915050565b6000602082840312156113fb576113fa610c81565b5b600061140984828501610ea6565b91505092915050565b7f4e487b7100000000000000000000000000000000000000000000000000000000600052603260045260246000fd5b7f4e487b7100000000000000000000000000000000000000000000000000000000600052601160045260246000fd5b600061147b82610d42565b91507fffffffffffffffffffffffffffffffffffffffffffffffffffffffffffffffff82036114ad576114ac611441565b5b600182019050919050565b7f4e487b7100000000000000000000000000000000000000000000000000000000600052602260045260246000fd5b600060028204905060018216806114ff57607f821691505b602082108103611512576115116114b8565b5b50919050565b60008190508160005260206000209050919050565b60006020601f8301049050919050565b600082821b905092915050565b60006008830261157a7fffffffffffffffffffffffffffffffffffffffffffffffffffffffffffffffff8261153d565b611584868361153d565b95508019841693508086168417925050509392505050565b6000819050919050565b60006115c16115bc6115b784610d42565b61159c565b610d42565b9050919050565b6000819050919050565b6115db836115a6565b6115ef6115e7826115c8565b84845461154a565b825550505050565b600090565b6116046115f7565b61160f8184846115d2565b505050565b5b81811015611633576116286000826115fc565b600181019050611615565b5050565b601f8211156116785761164981611518565b6116528461152d565b81016020851015611661578190505b61167561166d8561152d565b830182611614565b50505b505050565b600082821c905092915050565b600061169b6000198460080261167d565b1980831691505092915050565b60006116b4838361168a565b9150826002028217905092915050565b6116cd82611231565b67ffffffffffffffff8111156116e6576116e5610f40565b5b6116f082546114e7565b6116fb828285611637565b600060209050601f83116001811461172e576000841561171c578287015190505b61172685826116a8565b86555061178e565b601f19841661173c86611518565b60005b828110156117645784890151825560018201915060208501945060208101905061173f565b86831015611781578489015161177d601f89168261168a565b8355505b6001600288020188555050505b50505050505056fea26469706673582212206c0efd5e29a0e28e336b4e94e94d60b1d462f76bf17c15e177ebffc2cb964e0064736f6c63430008110033",
  "immutableReferences": {},
  "source": "// SPDX-License-Identifier: MIT\r\npragma solidity >=0.4.22 <0.9.0;\r\n\r\ncontract MainContract{\r\n\r\n    address public owner;\r\n    uint256 public authorizedListSize;\r\n    uint256 public temp;\r\n\r\n    constructor(){\r\n        owner = msg.sender;\r\n    }\r\n    \r\n    struct NGO{\r\n        string name;\r\n        string description;\r\n        address wallet;\r\n        uint256 registrationNumber;\r\n        uint256 upvotes;\r\n    }\r\n\r\n    struct AuthorizedNGO{\r\n        uint256 registrationNumber;\r\n        address wallet;\r\n    }\r\n\r\n    struct donationRecord{\r\n        uint256 registrationNumber;\r\n        address wallet;\r\n        uint256 amount;\r\n    }\r\n\r\n    mapping(address => donationRecord[]) donationRecords;  \r\n    AuthorizedNGO[] authorizedList;\r\n    NGO[] enrolledNGOs;\r\n    address[] donorAddresses;\r\n\r\n    function addToAuthorizedNGO(uint256 registrationNumber, address wallet) public {\r\n        require(msg.sender == owner);\r\n        AuthorizedNGO memory newAuthorizedNGO = AuthorizedNGO(registrationNumber, wallet);\r\n        authorizedList.push(newAuthorizedNGO);\r\n    }\r\n\r\n    function enrollAsNGO(string memory name, string memory description, address  wallet, uint256 registrationNumber ) external {\r\n        require(msg.sender == wallet);\r\n        \r\n        for (uint i = 0; i < authorizedListSize; i++) {\r\n            AuthorizedNGO memory currentNGO = authorizedList[i];\r\n            if(currentNGO.registrationNumber == registrationNumber){\r\n                NGO memory newNGO = NGO(name, description, wallet, registrationNumber, 0);\r\n                enrolledNGOs.push(newNGO);\r\n            }\r\n        }\r\n    }\r\n\r\n    function getOwner() public view returns(address){\r\n        return owner;\r\n    }\r\n\r\n    function changeOwner(address _newOwner) public {\r\n        require(msg.sender == owner);\r\n        owner = _newOwner;\r\n    }\r\n\r\n    function getNGOList() external view returns(NGO[] memory) {\r\n        return enrolledNGOs;\r\n    }\r\n\r\n    function getDonors() external view returns(address[] memory){\r\n        return donorAddresses;\r\n    }\r\n\r\n    function myDonations() public payable returns(donationRecord[] memory){\r\n        return donationRecords[msg.sender];\r\n    }\r\n    \r\n    function donate(address payable ngoWallet) public payable{\r\n        uint256 amount = msg.value;\r\n        require(amount > 0);\r\n        ngoWallet.transfer(msg.value);\r\n        donorAddresses.push(msg.sender);\r\n        for (uint i = 0; i < authorizedListSize; i++) {\r\n            AuthorizedNGO memory currentNGO = authorizedList[i];\r\n            if(currentNGO.wallet == ngoWallet){\r\n                donationRecord memory newDonationRecord = donationRecord(currentNGO.registrationNumber , ngoWallet, msg.value);\r\n                donationRecords[msg.sender].push(newDonationRecord);\r\n            }\r\n        }\r\n    }\r\n\r\n}\r\n",
  "sourcePath": "D:\\Anshul\\COLLEGE_STUDY_MATERIAL\\sem6\\semp_project\\sempII\\truffle\\contracts\\MainContract.sol",
  "compiler": {
    "name": "solc",
    "version": "0.8.17+commit.8df45f5f.Emscripten.clang"
  },
  "schemaVersion": "3.4.11",
  "updatedAt": "2023-03-21T09:02:50.257Z",
  "networkType": "ethereum",
  "devdoc": {
    "kind": "dev",
    "methods": {},
    "version": 1
  },
  "userdoc": {
    "kind": "user",
    "methods": {},
    "version": 1
  }
}