{
  "contractName": "MainContract",
  "abi": [
    {
      "inputs": [],
      "stateMutability": "nonpayable",
      "type": "constructor"
    },
    {
      "inputs": [
        {
          "internalType": "uint256",
          "name": "",
          "type": "uint256"
        }
      ],
      "name": "authorizedList",
      "outputs": [
        {
          "internalType": "uint256",
          "name": "registrationNumber",
          "type": "uint256"
        },
        {
          "internalType": "address",
          "name": "wallet",
          "type": "address"
        }
      ],
      "stateMutability": "view",
      "type": "function",
      "constant": true
    },
    {
      "inputs": [],
      "name": "authorizedListSize",
      "outputs": [
        {
          "internalType": "uint256",
          "name": "",
          "type": "uint256"
        }
      ],
      "stateMutability": "view",
      "type": "function",
      "constant": true
    },
    {
      "inputs": [
        {
          "internalType": "address",
          "name": "",
          "type": "address"
        },
        {
          "internalType": "uint256",
          "name": "",
          "type": "uint256"
        }
      ],
      "name": "donationRecords",
      "outputs": [
        {
          "internalType": "string",
          "name": "name",
          "type": "string"
        },
        {
          "internalType": "uint256",
          "name": "registrationNumber",
          "type": "uint256"
        },
        {
          "internalType": "address",
          "name": "wallet",
          "type": "address"
        },
        {
          "internalType": "uint256",
          "name": "amount",
          "type": "uint256"
        }
      ],
      "stateMutability": "view",
      "type": "function",
      "constant": true
    },
    {
      "inputs": [
        {
          "internalType": "uint256",
          "name": "",
          "type": "uint256"
        }
      ],
      "name": "enrolledNGOs",
      "outputs": [
        {
          "internalType": "string",
          "name": "name",
          "type": "string"
        },
        {
          "internalType": "string",
          "name": "description",
          "type": "string"
        },
        {
          "internalType": "address",
          "name": "wallet",
          "type": "address"
        },
        {
          "internalType": "uint256",
          "name": "registrationNumber",
          "type": "uint256"
        },
        {
          "internalType": "uint256",
          "name": "upvotes",
          "type": "uint256"
        }
      ],
      "stateMutability": "view",
      "type": "function",
      "constant": true
    },
    {
      "inputs": [],
      "name": "owner",
      "outputs": [
        {
          "internalType": "address",
          "name": "",
          "type": "address"
        }
      ],
      "stateMutability": "view",
      "type": "function",
      "constant": true
    },
    {
      "inputs": [
        {
          "internalType": "uint256",
          "name": "",
          "type": "uint256"
        }
      ],
      "name": "votedWallets",
      "outputs": [
        {
          "internalType": "address",
          "name": "",
          "type": "address"
        }
      ],
      "stateMutability": "view",
      "type": "function",
      "constant": true
    },
    {
      "inputs": [
        {
          "internalType": "uint256",
          "name": "registrationNumber",
          "type": "uint256"
        },
        {
          "internalType": "address",
          "name": "wallet",
          "type": "address"
        }
      ],
      "name": "addToAuthorizedNGO",
      "outputs": [],
      "stateMutability": "nonpayable",
      "type": "function"
    },
    {
      "inputs": [
        {
          "internalType": "string",
          "name": "name",
          "type": "string"
        },
        {
          "internalType": "string",
          "name": "description",
          "type": "string"
        },
        {
          "internalType": "address",
          "name": "wallet",
          "type": "address"
        },
        {
          "internalType": "uint256",
          "name": "registrationNumber",
          "type": "uint256"
        }
      ],
      "name": "enrollAsNGO",
      "outputs": [],
      "stateMutability": "nonpayable",
      "type": "function"
    },
    {
      "inputs": [],
      "name": "getOwner",
      "outputs": [
        {
          "internalType": "address",
          "name": "",
          "type": "address"
        }
      ],
      "stateMutability": "view",
      "type": "function",
      "constant": true
    },
    {
      "inputs": [],
      "name": "getAuthorizedList",
      "outputs": [
        {
          "components": [
            {
              "internalType": "uint256",
              "name": "registrationNumber",
              "type": "uint256"
            },
            {
              "internalType": "address",
              "name": "wallet",
              "type": "address"
            }
          ],
          "internalType": "struct MainContract.AuthorizedNGO[]",
          "name": "",
          "type": "tuple[]"
        }
      ],
      "stateMutability": "view",
      "type": "function",
      "constant": true
    },
    {
      "inputs": [
        {
          "internalType": "address",
          "name": "_newOwner",
          "type": "address"
        }
      ],
      "name": "changeOwner",
      "outputs": [],
      "stateMutability": "nonpayable",
      "type": "function"
    },
    {
      "inputs": [],
      "name": "getNGOList",
      "outputs": [
        {
          "components": [
            {
              "internalType": "string",
              "name": "name",
              "type": "string"
            },
            {
              "internalType": "string",
              "name": "description",
              "type": "string"
            },
            {
              "internalType": "address",
              "name": "wallet",
              "type": "address"
            },
            {
              "internalType": "uint256",
              "name": "registrationNumber",
              "type": "uint256"
            },
            {
              "internalType": "uint256",
              "name": "upvotes",
              "type": "uint256"
            }
          ],
          "internalType": "struct MainContract.NGO[]",
          "name": "",
          "type": "tuple[]"
        }
      ],
      "stateMutability": "view",
      "type": "function",
      "constant": true
    },
    {
      "inputs": [],
      "name": "myDonations",
      "outputs": [
        {
          "components": [
            {
              "internalType": "string",
              "name": "name",
              "type": "string"
            },
            {
              "internalType": "uint256",
              "name": "registrationNumber",
              "type": "uint256"
            },
            {
              "internalType": "address",
              "name": "wallet",
              "type": "address"
            },
            {
              "internalType": "uint256",
              "name": "amount",
              "type": "uint256"
            }
          ],
          "internalType": "struct MainContract.donationRecord[]",
          "name": "",
          "type": "tuple[]"
        }
      ],
      "stateMutability": "view",
      "type": "function",
      "constant": true
    },
    {
      "inputs": [
        {
          "internalType": "address",
          "name": "ngoWallet",
          "type": "address"
        }
      ],
      "name": "upvote",
      "outputs": [],
      "stateMutability": "nonpayable",
      "type": "function"
    },
    {
      "inputs": [
        {
          "internalType": "address payable",
          "name": "ngoWallet",
          "type": "address"
        }
      ],
      "name": "donate",
      "outputs": [],
      "stateMutability": "payable",
      "type": "function",
      "payable": true
    }
  ],
  "bytecode": "0x608060405234801561001057600080fd5b50336000806101000a81548173ffffffffffffffffffffffffffffffffffffffff021916908373ffffffffffffffffffffffffffffffffffffffff160217905550612273806100606000396000f3fe6080604052600436106100e75760003560e01c806384a9d9041161008a578063a29e949611610059578063a29e9496146102d5578063a6f9dae114610300578063bd591ad214610329578063d04477e414610369576100e7565b806384a9d90414610229578063893d20e8146102545780638da5cb5b1461027f5780639a1800c6146102aa576100e7565b806335c19416116100c657806335c194161461015c57806346387f6a14610185578063620e8eb9146101c25780637083868214610200576100e7565b8062362a95146100ec5780630839b596146101085780631a57f7b414610131575b600080fd5b6101066004803603810190610101919061156c565b6103aa565b005b34801561011457600080fd5b5061012f600480360381019061012a91906115d7565b610743565b005b34801561013d57600080fd5b50610146610924565b60405161015391906117e1565b60405180910390f35b34801561016857600080fd5b50610183600480360381019061017e919061182f565b610abc565b005b34801561019157600080fd5b506101ac60048036038101906101a7919061186f565b610c6a565b6040516101b991906118ab565b60405180910390f35b3480156101ce57600080fd5b506101e960048036038101906101e4919061186f565b610ca9565b6040516101f79291906118d5565b60405180910390f35b34801561020c57600080fd5b5061022760048036038101906102229190611a33565b610cfd565b005b34801561023557600080fd5b5061023e610ef5565b60405161024b9190611bb0565b60405180910390f35b34801561026057600080fd5b50610269610fb4565b60405161027691906118ab565b60405180910390f35b34801561028b57600080fd5b50610294610fdd565b6040516102a191906118ab565b60405180910390f35b3480156102b657600080fd5b506102bf611001565b6040516102cc9190611bd2565b60405180910390f35b3480156102e157600080fd5b506102ea611007565b6040516102f79190611d2c565b60405180910390f35b34801561030c57600080fd5b50610327600480360381019061032291906115d7565b6111f4565b005b34801561033557600080fd5b50610350600480360381019061034b9190611d4e565b61128f565b6040516103609493929190611dd8565b60405180910390f35b34801561037557600080fd5b50610390600480360381019061038b919061186f565b611384565b6040516103a1959493929190611e24565b60405180910390f35b6000349050600081116103bc57600080fd5b8173ffffffffffffffffffffffffffffffffffffffff166108fc349081150290604051600060405180830381858888f19350505050158015610402573d6000803e3d6000fd5b5060005b60048054905081101561073e5760006004828154811061042957610428611e85565b5b90600052602060002090600502016040518060a001604052908160008201805461045290611ee3565b80601f016020809104026020016040519081016040528092919081815260200182805461047e90611ee3565b80156104cb5780601f106104a0576101008083540402835291602001916104cb565b820191906000526020600020905b8154815290600101906020018083116104ae57829003601f168201915b505050505081526020016001820180546104e490611ee3565b80601f016020809104026020016040519081016040528092919081815260200182805461051090611ee3565b801561055d5780601f106105325761010080835404028352916020019161055d565b820191906000526020600020905b81548152906001019060200180831161054057829003601f168201915b505050505081526020016002820160009054906101000a900473ffffffffffffffffffffffffffffffffffffffff1673ffffffffffffffffffffffffffffffffffffffff1673ffffffffffffffffffffffffffffffffffffffff1681526020016003820154815260200160048201548152505090508373ffffffffffffffffffffffffffffffffffffffff16816040015173ffffffffffffffffffffffffffffffffffffffff160361072a576000604051806080016040528083600001518152602001836060015181526020018673ffffffffffffffffffffffffffffffffffffffff168152602001348152509050600260003373ffffffffffffffffffffffffffffffffffffffff1673ffffffffffffffffffffffffffffffffffffffff16815260200190815260200160002081908060018154018082558091505060019003906000526020600020906004020160009091909190915060008201518160000190816106ca91906120c0565b506020820151816001015560408201518160020160006101000a81548173ffffffffffffffffffffffffffffffffffffffff021916908373ffffffffffffffffffffffffffffffffffffffff160217905550606082015181600301555050505b508080610736906121c1565b915050610406565b505050565b60005b6005805490508110156107dd576005818154811061076757610766611e85565b5b9060005260206000200160009054906101000a900473ffffffffffffffffffffffffffffffffffffffff1673ffffffffffffffffffffffffffffffffffffffff163373ffffffffffffffffffffffffffffffffffffffff16036107ca5750610921565b80806107d5906121c1565b915050610746565b5060005b60048054905081101561091f578173ffffffffffffffffffffffffffffffffffffffff166004828154811061081957610818611e85565b5b906000526020600020906005020160020160009054906101000a900473ffffffffffffffffffffffffffffffffffffffff1673ffffffffffffffffffffffffffffffffffffffff160361090c5760016004828154811061087c5761087b611e85565b5b9060005260206000209060050201600401600082825461089c9190612209565b925050819055506005339080600181540180825580915050600190039060005260206000200160009091909190916101000a81548173ffffffffffffffffffffffffffffffffffffffff021916908373ffffffffffffffffffffffffffffffffffffffff16021790555050610921565b8080610917906121c1565b9150506107e1565b505b50565b6060600260003373ffffffffffffffffffffffffffffffffffffffff1673ffffffffffffffffffffffffffffffffffffffff168152602001908152602001600020805480602002602001604051908101604052809291908181526020016000905b82821015610ab357838290600052602060002090600402016040518060800160405290816000820180546109b890611ee3565b80601f01602080910402602001604051908101604052809291908181526020018280546109e490611ee3565b8015610a315780601f10610a0657610100808354040283529160200191610a31565b820191906000526020600020905b815481529060010190602001808311610a1457829003601f168201915b50505050508152602001600182015481526020016002820160009054906101000a900473ffffffffffffffffffffffffffffffffffffffff1673ffffffffffffffffffffffffffffffffffffffff1673ffffffffffffffffffffffffffffffffffffffff16815260200160038201548152505081526020019060010190610985565b50505050905090565b60008054906101000a900473ffffffffffffffffffffffffffffffffffffffff1673ffffffffffffffffffffffffffffffffffffffff163373ffffffffffffffffffffffffffffffffffffffff1614610b1457600080fd5b60005b600380549050811015610bb55760038181548110610b3857610b37611e85565b5b906000526020600020906002020160010160009054906101000a900473ffffffffffffffffffffffffffffffffffffffff1673ffffffffffffffffffffffffffffffffffffffff168273ffffffffffffffffffffffffffffffffffffffff1603610ba25750610c66565b8080610bad906121c1565b915050610b17565b50600060405180604001604052808481526020018373ffffffffffffffffffffffffffffffffffffffff16815250905060038190806001815401808255809150506001900390600052602060002090600202016000909190919091506000820151816000015560208201518160010160006101000a81548173ffffffffffffffffffffffffffffffffffffffff021916908373ffffffffffffffffffffffffffffffffffffffff1602179055505050505b5050565b60058181548110610c7a57600080fd5b906000526020600020016000915054906101000a900473ffffffffffffffffffffffffffffffffffffffff1681565b60038181548110610cb957600080fd5b90600052602060002090600202016000915090508060000154908060010160009054906101000a900473ffffffffffffffffffffffffffffffffffffffff16905082565b8173ffffffffffffffffffffffffffffffffffffffff163373ffffffffffffffffffffffffffffffffffffffff1614610d3557600080fd5b60005b600380549050811015610eee57600060038281548110610d5b57610d5a611e85565b5b9060005260206000209060020201604051806040016040529081600082015481526020016001820160009054906101000a900473ffffffffffffffffffffffffffffffffffffffff1673ffffffffffffffffffffffffffffffffffffffff1673ffffffffffffffffffffffffffffffffffffffff1681525050905082816000015103610eda5760006040518060a001604052808881526020018781526020018673ffffffffffffffffffffffffffffffffffffffff1681526020018581526020016000815250905060048190806001815401808255809150506001900390600052602060002090600502016000909190919091506000820151816000019081610e6491906120c0565b506020820151816001019081610e7a91906120c0565b5060408201518160020160006101000a81548173ffffffffffffffffffffffffffffffffffffffff021916908373ffffffffffffffffffffffffffffffffffffffff16021790555060608201518160030155608082015181600401555050505b508080610ee6906121c1565b915050610d38565b5050505050565b60606003805480602002602001604051908101604052809291908181526020016000905b82821015610fab5783829060005260206000209060020201604051806040016040529081600082015481526020016001820160009054906101000a900473ffffffffffffffffffffffffffffffffffffffff1673ffffffffffffffffffffffffffffffffffffffff1673ffffffffffffffffffffffffffffffffffffffff168152505081526020019060010190610f19565b50505050905090565b60008060009054906101000a900473ffffffffffffffffffffffffffffffffffffffff16905090565b60008054906101000a900473ffffffffffffffffffffffffffffffffffffffff1681565b60015481565b60606004805480602002602001604051908101604052809291908181526020016000905b828210156111eb57838290600052602060002090600502016040518060a001604052908160008201805461105e90611ee3565b80601f016020809104026020016040519081016040528092919081815260200182805461108a90611ee3565b80156110d75780601f106110ac576101008083540402835291602001916110d7565b820191906000526020600020905b8154815290600101906020018083116110ba57829003601f168201915b505050505081526020016001820180546110f090611ee3565b80601f016020809104026020016040519081016040528092919081815260200182805461111c90611ee3565b80156111695780601f1061113e57610100808354040283529160200191611169565b820191906000526020600020905b81548152906001019060200180831161114c57829003601f168201915b505050505081526020016002820160009054906101000a900473ffffffffffffffffffffffffffffffffffffffff1673ffffffffffffffffffffffffffffffffffffffff1673ffffffffffffffffffffffffffffffffffffffff168152602001600382015481526020016004820154815250508152602001906001019061102b565b50505050905090565b60008054906101000a900473ffffffffffffffffffffffffffffffffffffffff1673ffffffffffffffffffffffffffffffffffffffff163373ffffffffffffffffffffffffffffffffffffffff161461124c57600080fd5b806000806101000a81548173ffffffffffffffffffffffffffffffffffffffff021916908373ffffffffffffffffffffffffffffffffffffffff16021790555050565b600260205281600052604060002081815481106112ab57600080fd5b9060005260206000209060040201600091509150508060000180546112cf90611ee3565b80601f01602080910402602001604051908101604052809291908181526020018280546112fb90611ee3565b80156113485780601f1061131d57610100808354040283529160200191611348565b820191906000526020600020905b81548152906001019060200180831161132b57829003601f168201915b5050505050908060010154908060020160009054906101000a900473ffffffffffffffffffffffffffffffffffffffff16908060030154905084565b6004818154811061139457600080fd5b90600052602060002090600502016000915090508060000180546113b790611ee3565b80601f01602080910402602001604051908101604052809291908181526020018280546113e390611ee3565b80156114305780601f1061140557610100808354040283529160200191611430565b820191906000526020600020905b81548152906001019060200180831161141357829003601f168201915b50505050509080600101805461144590611ee3565b80601f016020809104026020016040519081016040528092919081815260200182805461147190611ee3565b80156114be5780601f10611493576101008083540402835291602001916114be565b820191906000526020600020905b8154815290600101906020018083116114a157829003601f168201915b5050505050908060020160009054906101000a900473ffffffffffffffffffffffffffffffffffffffff16908060030154908060040154905085565b6000604051905090565b600080fd5b600080fd5b600073ffffffffffffffffffffffffffffffffffffffff82169050919050565b60006115398261150e565b9050919050565b6115498161152e565b811461155457600080fd5b50565b60008135905061156681611540565b92915050565b60006020828403121561158257611581611504565b5b600061159084828501611557565b91505092915050565b60006115a48261150e565b9050919050565b6115b481611599565b81146115bf57600080fd5b50565b6000813590506115d1816115ab565b92915050565b6000602082840312156115ed576115ec611504565b5b60006115fb848285016115c2565b91505092915050565b600081519050919050565b600082825260208201905092915050565b6000819050602082019050919050565b600081519050919050565b600082825260208201905092915050565b60005b8381101561166a57808201518184015260208101905061164f565b60008484015250505050565b6000601f19601f8301169050919050565b600061169282611630565b61169c818561163b565b93506116ac81856020860161164c565b6116b581611676565b840191505092915050565b6000819050919050565b6116d3816116c0565b82525050565b6116e281611599565b82525050565b600060808301600083015184820360008601526117058282611687565b915050602083015161171a60208601826116ca565b50604083015161172d60408601826116d9565b50606083015161174060608601826116ca565b508091505092915050565b600061175783836116e8565b905092915050565b6000602082019050919050565b600061177782611604565b611781818561160f565b93508360208202850161179385611620565b8060005b858110156117cf57848403895281516117b0858261174b565b94506117bb8361175f565b925060208a01995050600181019050611797565b50829750879550505050505092915050565b600060208201905081810360008301526117fb818461176c565b905092915050565b61180c816116c0565b811461181757600080fd5b50565b60008135905061182981611803565b92915050565b6000806040838503121561184657611845611504565b5b60006118548582860161181a565b9250506020611865858286016115c2565b9150509250929050565b60006020828403121561188557611884611504565b5b60006118938482850161181a565b91505092915050565b6118a581611599565b82525050565b60006020820190506118c0600083018461189c565b92915050565b6118cf816116c0565b82525050565b60006040820190506118ea60008301856118c6565b6118f7602083018461189c565b9392505050565b600080fd5b600080fd5b7f4e487b7100000000000000000000000000000000000000000000000000000000600052604160045260246000fd5b61194082611676565b810181811067ffffffffffffffff8211171561195f5761195e611908565b5b80604052505050565b60006119726114fa565b905061197e8282611937565b919050565b600067ffffffffffffffff82111561199e5761199d611908565b5b6119a782611676565b9050602081019050919050565b82818337600083830152505050565b60006119d66119d184611983565b611968565b9050828152602081018484840111156119f2576119f1611903565b5b6119fd8482856119b4565b509392505050565b600082601f830112611a1a57611a196118fe565b5b8135611a2a8482602086016119c3565b91505092915050565b60008060008060808587031215611a4d57611a4c611504565b5b600085013567ffffffffffffffff811115611a6b57611a6a611509565b5b611a7787828801611a05565b945050602085013567ffffffffffffffff811115611a9857611a97611509565b5b611aa487828801611a05565b9350506040611ab5878288016115c2565b9250506060611ac68782880161181a565b91505092959194509250565b600081519050919050565b600082825260208201905092915050565b6000819050602082019050919050565b604082016000820151611b1460008501826116ca565b506020820151611b2760208501826116d9565b50505050565b6000611b398383611afe565b60408301905092915050565b6000602082019050919050565b6000611b5d82611ad2565b611b678185611add565b9350611b7283611aee565b8060005b83811015611ba3578151611b8a8882611b2d565b9750611b9583611b45565b925050600181019050611b76565b5085935050505092915050565b60006020820190508181036000830152611bca8184611b52565b905092915050565b6000602082019050611be760008301846118c6565b92915050565b600081519050919050565b600082825260208201905092915050565b6000819050602082019050919050565b600060a0830160008301518482036000860152611c368282611687565b91505060208301518482036020860152611c508282611687565b9150506040830151611c6560408601826116d9565b506060830151611c7860608601826116ca565b506080830151611c8b60808601826116ca565b508091505092915050565b6000611ca28383611c19565b905092915050565b6000602082019050919050565b6000611cc282611bed565b611ccc8185611bf8565b935083602082028501611cde85611c09565b8060005b85811015611d1a5784840389528151611cfb8582611c96565b9450611d0683611caa565b925060208a01995050600181019050611ce2565b50829750879550505050505092915050565b60006020820190508181036000830152611d468184611cb7565b905092915050565b60008060408385031215611d6557611d64611504565b5b6000611d73858286016115c2565b9250506020611d848582860161181a565b9150509250929050565b600082825260208201905092915050565b6000611daa82611630565b611db48185611d8e565b9350611dc481856020860161164c565b611dcd81611676565b840191505092915050565b60006080820190508181036000830152611df28187611d9f565b9050611e0160208301866118c6565b611e0e604083018561189c565b611e1b60608301846118c6565b95945050505050565b600060a0820190508181036000830152611e3e8188611d9f565b90508181036020830152611e528187611d9f565b9050611e61604083018661189c565b611e6e60608301856118c6565b611e7b60808301846118c6565b9695505050505050565b7f4e487b7100000000000000000000000000000000000000000000000000000000600052603260045260246000fd5b7f4e487b7100000000000000000000000000000000000000000000000000000000600052602260045260246000fd5b60006002820490506001821680611efb57607f821691505b602082108103611f0e57611f0d611eb4565b5b50919050565b60008190508160005260206000209050919050565b60006020601f8301049050919050565b600082821b905092915050565b600060088302611f767fffffffffffffffffffffffffffffffffffffffffffffffffffffffffffffffff82611f39565b611f808683611f39565b95508019841693508086168417925050509392505050565b6000819050919050565b6000611fbd611fb8611fb3846116c0565b611f98565b6116c0565b9050919050565b6000819050919050565b611fd783611fa2565b611feb611fe382611fc4565b848454611f46565b825550505050565b600090565b612000611ff3565b61200b818484611fce565b505050565b5b8181101561202f57612024600082611ff8565b600181019050612011565b5050565b601f8211156120745761204581611f14565b61204e84611f29565b8101602085101561205d578190505b61207161206985611f29565b830182612010565b50505b505050565b600082821c905092915050565b600061209760001984600802612079565b1980831691505092915050565b60006120b08383612086565b9150826002028217905092915050565b6120c982611630565b67ffffffffffffffff8111156120e2576120e1611908565b5b6120ec8254611ee3565b6120f7828285612033565b600060209050601f83116001811461212a5760008415612118578287015190505b61212285826120a4565b86555061218a565b601f19841661213886611f14565b60005b828110156121605784890151825560018201915060208501945060208101905061213b565b8683101561217d5784890151612179601f891682612086565b8355505b6001600288020188555050505b505050505050565b7f4e487b7100000000000000000000000000000000000000000000000000000000600052601160045260246000fd5b60006121cc826116c0565b91507fffffffffffffffffffffffffffffffffffffffffffffffffffffffffffffffff82036121fe576121fd612192565b5b600182019050919050565b6000612214826116c0565b915061221f836116c0565b925082820190508082111561223757612236612192565b5b9291505056fea2646970667358221220aef29a5692ca7c0a80d3ce26c1e2888b489f7da4586ecc09e34d8ed555d04c4f64736f6c63430008110033",
  "immutableReferences": {},
  "source": "// SPDX-License-Identifier: MIT\r\npragma solidity >=0.4.22 <0.9.0;\r\n\r\ncontract MainContract{\r\n\r\n    address public owner;\r\n    uint256 public authorizedListSize;\r\n\r\n    constructor(){\r\n        owner = msg.sender;\r\n    }\r\n    \r\n    struct NGO{\r\n        string name;\r\n        string description;\r\n        address wallet;\r\n        uint256 registrationNumber;\r\n        uint256 upvotes;\r\n    }\r\n\r\n    struct AuthorizedNGO{\r\n        uint256 registrationNumber;\r\n        address wallet;\r\n    }\r\n\r\n    struct donationRecord{\r\n        string name;\r\n        uint256 registrationNumber;\r\n        address wallet;\r\n        uint256 amount;\r\n    }\r\n\r\n    mapping(address => donationRecord[]) public donationRecords;  \r\n    AuthorizedNGO[] public authorizedList;\r\n    NGO[] public enrolledNGOs;\r\n    address[] public votedWallets;\r\n\r\n    function addToAuthorizedNGO(uint256 registrationNumber, address wallet) public {\r\n        require(msg.sender == owner);\r\n        for(uint i = 0; i < authorizedList.length; i++){\r\n            if(wallet == authorizedList[i].wallet){\r\n                return;\r\n            }\r\n        }\r\n        AuthorizedNGO memory newAuthorizedNGO = AuthorizedNGO(registrationNumber, wallet);\r\n        authorizedList.push(newAuthorizedNGO);\r\n    }\r\n\r\n    function enrollAsNGO(string memory name, string memory description, address  wallet, uint256 registrationNumber ) external {\r\n        require(msg.sender == wallet);\r\n        \r\n        for (uint i = 0; i < authorizedList.length; i++) {\r\n            AuthorizedNGO memory currentNGO = authorizedList[i];\r\n            if(currentNGO.registrationNumber == registrationNumber){\r\n                NGO memory newNGO = NGO(name, description, wallet, registrationNumber, 0);\r\n                enrolledNGOs.push(newNGO);\r\n            }\r\n        }\r\n    }\r\n\r\n    function getOwner() public view returns(address){\r\n        return owner;\r\n    }\r\n\r\n    function getAuthorizedList() public view returns(AuthorizedNGO[] memory){\r\n        return authorizedList;\r\n    } \r\n\r\n    function changeOwner(address _newOwner) public {\r\n        require(msg.sender == owner);\r\n        owner = _newOwner;\r\n    } \r\n\r\n    function getNGOList() external view returns(NGO[] memory) {\r\n        return enrolledNGOs;\r\n    }\r\n\r\n    function myDonations() external view returns(donationRecord[] memory){\r\n        return donationRecords[msg.sender]; \r\n    }\r\n\r\n    function upvote(address ngoWallet) public {\r\n        for (uint i = 0; i < votedWallets.length; i++){\r\n            if(msg.sender == votedWallets[i]){\r\n                return;\r\n            } \r\n        }\r\n        for (uint i = 0; i < enrolledNGOs.length; i++) {\r\n            if(enrolledNGOs[i].wallet == ngoWallet){\r\n                enrolledNGOs[i].upvotes += 1;\r\n                votedWallets.push(msg.sender);\r\n                return;\r\n            }\r\n        }\r\n    }\r\n\r\n    function donate(address payable ngoWallet) external payable {\r\n        uint256 amount = msg.value;\r\n        require(amount > 0);\r\n        ngoWallet.transfer(msg.value);\r\n        for (uint i = 0; i < enrolledNGOs.length; i++) {\r\n            NGO memory currentNGO = enrolledNGOs[i];\r\n            if(currentNGO.wallet == ngoWallet){\r\n                donationRecord memory newDonationRecord = donationRecord(currentNGO.name, currentNGO.registrationNumber, ngoWallet, msg.value);\r\n                donationRecords[msg.sender].push(newDonationRecord);\r\n            }\r\n        }\r\n    }\r\n\r\n}\r\n",
  "sourcePath": "D:\\Anshul\\COLLEGE_STUDY_MATERIAL\\sem6\\semp_project\\sempII\\truffle\\contracts\\MainContract.sol",
  "compiler": {
    "name": "solc",
    "version": "0.8.17+commit.8df45f5f.Emscripten.clang"
  },
  "schemaVersion": "3.4.11",
  "updatedAt": "2023-04-05T09:35:11.993Z",
  "networkType": "ethereum",
  "devdoc": {
    "kind": "dev",
    "methods": {},
    "version": 1
  },
  "userdoc": {
    "kind": "user",
    "methods": {},
    "version": 1
  }
}