{
  "contractName": "MainContract",
  "abi": [
    {
      "inputs": [],
      "stateMutability": "nonpayable",
      "type": "constructor"
    },
    {
      "inputs": [],
      "name": "authorizedListSize",
      "outputs": [
        {
          "internalType": "uint256",
          "name": "",
          "type": "uint256"
        }
      ],
      "stateMutability": "view",
      "type": "function",
      "constant": true
    },
    {
      "inputs": [],
      "name": "owner",
      "outputs": [
        {
          "internalType": "address",
          "name": "",
          "type": "address"
        }
      ],
      "stateMutability": "view",
      "type": "function",
      "constant": true
    },
    {
      "inputs": [
        {
          "internalType": "uint256",
          "name": "registrationNumber",
          "type": "uint256"
        },
        {
          "internalType": "address",
          "name": "wallet",
          "type": "address"
        }
      ],
      "name": "addToAuthorizedNGO",
      "outputs": [],
      "stateMutability": "nonpayable",
      "type": "function"
    },
    {
      "inputs": [
        {
          "internalType": "string",
          "name": "name",
          "type": "string"
        },
        {
          "internalType": "string",
          "name": "description",
          "type": "string"
        },
        {
          "internalType": "address",
          "name": "wallet",
          "type": "address"
        },
        {
          "internalType": "uint256",
          "name": "registrationNumber",
          "type": "uint256"
        }
      ],
      "name": "enrollAsNGO",
      "outputs": [],
      "stateMutability": "nonpayable",
      "type": "function"
    },
    {
      "inputs": [],
      "name": "getOwner",
      "outputs": [
        {
          "internalType": "address",
          "name": "",
          "type": "address"
        }
      ],
      "stateMutability": "view",
      "type": "function",
      "constant": true
    },
    {
      "inputs": [],
      "name": "getAuthorizedList",
      "outputs": [
        {
          "components": [
            {
              "internalType": "uint256",
              "name": "registrationNumber",
              "type": "uint256"
            },
            {
              "internalType": "address",
              "name": "wallet",
              "type": "address"
            }
          ],
          "internalType": "struct MainContract.AuthorizedNGO[]",
          "name": "",
          "type": "tuple[]"
        }
      ],
      "stateMutability": "view",
      "type": "function",
      "constant": true
    },
    {
      "inputs": [
        {
          "internalType": "address",
          "name": "_newOwner",
          "type": "address"
        }
      ],
      "name": "changeOwner",
      "outputs": [],
      "stateMutability": "nonpayable",
      "type": "function"
    },
    {
      "inputs": [],
      "name": "getNGOList",
      "outputs": [
        {
          "components": [
            {
              "internalType": "string",
              "name": "name",
              "type": "string"
            },
            {
              "internalType": "string",
              "name": "description",
              "type": "string"
            },
            {
              "internalType": "address",
              "name": "wallet",
              "type": "address"
            },
            {
              "internalType": "uint256",
              "name": "registrationNumber",
              "type": "uint256"
            },
            {
              "internalType": "uint256",
              "name": "upvotes",
              "type": "uint256"
            }
          ],
          "internalType": "struct MainContract.NGO[]",
          "name": "",
          "type": "tuple[]"
        }
      ],
      "stateMutability": "view",
      "type": "function",
      "constant": true
    },
    {
      "inputs": [],
      "name": "getDonors",
      "outputs": [
        {
          "internalType": "address[]",
          "name": "",
          "type": "address[]"
        }
      ],
      "stateMutability": "view",
      "type": "function",
      "constant": true
    },
    {
      "inputs": [],
      "name": "myDonations",
      "outputs": [
        {
          "components": [
            {
              "internalType": "address",
              "name": "wallet",
              "type": "address"
            },
            {
              "internalType": "uint256",
              "name": "amount",
              "type": "uint256"
            }
          ],
          "internalType": "struct MainContract.donationRecord[]",
          "name": "",
          "type": "tuple[]"
        }
      ],
      "stateMutability": "payable",
      "type": "function",
      "payable": true
    },
    {
      "inputs": [
        {
          "internalType": "address payable",
          "name": "ngoWallet",
          "type": "address"
        }
      ],
      "name": "donate",
      "outputs": [],
      "stateMutability": "payable",
      "type": "function",
      "payable": true
    }
  ],
  "bytecode": "0x608060405234801561001057600080fd5b50336000806101000a81548173ffffffffffffffffffffffffffffffffffffffff021916908373ffffffffffffffffffffffffffffffffffffffff160217905550600060405180604001604052806001815260200173f7937137330bd9c8d630aea211e251433c4fdc7273ffffffffffffffffffffffffffffffffffffffff16815250905060038190806001815401808255809150506001900390600052602060002090600202016000909190919091506000820151816000015560208201518160010160006101000a81548173ffffffffffffffffffffffffffffffffffffffff021916908373ffffffffffffffffffffffffffffffffffffffff16021790555050505061174a806101246000396000f3fe60806040526004361061009b5760003560e01c8063893d20e811610064578063893d20e8146101575780638da5cb5b1461018257806396f300d4146101ad5780639a1800c6146101d8578063a29e949614610203578063a6f9dae11461022e5761009b565b8062362a95146100a05780631a57f7b4146100bc57806335c19416146100da578063708386821461010357806384a9d9041461012c575b600080fd5b6100ba60048036038101906100b59190610b7a565b610257565b005b6100c46102e4565b6040516100d19190610cbf565b60405180910390f35b3480156100e657600080fd5b5061010160048036038101906100fc9190610d39565b6103e0565b005b34801561010f57600080fd5b5061012a60048036038101906101259190610ebf565b6104eb565b005b34801561013857600080fd5b506101416106e0565b60405161014e919061103c565b60405180910390f35b34801561016357600080fd5b5061016c61079f565b604051610179919061106d565b60405180910390f35b34801561018e57600080fd5b506101976107c8565b6040516101a4919061106d565b60405180910390f35b3480156101b957600080fd5b506101c26107ec565b6040516101cf9190611137565b60405180910390f35b3480156101e457600080fd5b506101ed61087a565b6040516101fa9190611168565b60405180910390f35b34801561020f57600080fd5b50610218610880565b6040516102259190611341565b60405180910390f35b34801561023a57600080fd5b5061025560048036038101906102509190611363565b610a6d565b005b60003490506000811161026957600080fd5b8173ffffffffffffffffffffffffffffffffffffffff166108fc349081150290604051600060405180830381858888f193505050501580156102af573d6000803e3d6000fd5b50600060405180604001604052808473ffffffffffffffffffffffffffffffffffffffff168152602001348152509050505050565b6060600260003373ffffffffffffffffffffffffffffffffffffffff1673ffffffffffffffffffffffffffffffffffffffff168152602001908152602001600020805480602002602001604051908101604052809291908181526020016000905b828210156103d757838290600052602060002090600202016040518060400160405290816000820160009054906101000a900473ffffffffffffffffffffffffffffffffffffffff1673ffffffffffffffffffffffffffffffffffffffff1673ffffffffffffffffffffffffffffffffffffffff16815260200160018201548152505081526020019060010190610345565b50505050905090565b60008054906101000a900473ffffffffffffffffffffffffffffffffffffffff1673ffffffffffffffffffffffffffffffffffffffff163373ffffffffffffffffffffffffffffffffffffffff161461043857600080fd5b600060405180604001604052808481526020018373ffffffffffffffffffffffffffffffffffffffff16815250905060038190806001815401808255809150506001900390600052602060002090600202016000909190919091506000820151816000015560208201518160010160006101000a81548173ffffffffffffffffffffffffffffffffffffffff021916908373ffffffffffffffffffffffffffffffffffffffff1602179055505050505050565b8173ffffffffffffffffffffffffffffffffffffffff163373ffffffffffffffffffffffffffffffffffffffff161461052357600080fd5b60005b6001548110156106d95760006003828154811061054657610545611390565b5b9060005260206000209060020201604051806040016040529081600082015481526020016001820160009054906101000a900473ffffffffffffffffffffffffffffffffffffffff1673ffffffffffffffffffffffffffffffffffffffff1673ffffffffffffffffffffffffffffffffffffffff16815250509050828160000151036106c55760006040518060a001604052808881526020018781526020018673ffffffffffffffffffffffffffffffffffffffff168152602001858152602001600081525090506004819080600181540180825580915050600190039060005260206000209060050201600090919091909150600082015181600001908161064f91906115cb565b50602082015181600101908161066591906115cb565b5060408201518160020160006101000a81548173ffffffffffffffffffffffffffffffffffffffff021916908373ffffffffffffffffffffffffffffffffffffffff16021790555060608201518160030155608082015181600401555050505b5080806106d1906116cc565b915050610526565b5050505050565b60606003805480602002602001604051908101604052809291908181526020016000905b828210156107965783829060005260206000209060020201604051806040016040529081600082015481526020016001820160009054906101000a900473ffffffffffffffffffffffffffffffffffffffff1673ffffffffffffffffffffffffffffffffffffffff1673ffffffffffffffffffffffffffffffffffffffff168152505081526020019060010190610704565b50505050905090565b60008060009054906101000a900473ffffffffffffffffffffffffffffffffffffffff16905090565b60008054906101000a900473ffffffffffffffffffffffffffffffffffffffff1681565b6060600580548060200260200160405190810160405280929190818152602001828054801561087057602002820191906000526020600020905b8160009054906101000a900473ffffffffffffffffffffffffffffffffffffffff1673ffffffffffffffffffffffffffffffffffffffff1681526020019060010190808311610826575b5050505050905090565b60015481565b60606004805480602002602001604051908101604052809291908181526020016000905b82821015610a6457838290600052602060002090600502016040518060a00160405290816000820180546108d7906113ee565b80601f0160208091040260200160405190810160405280929190818152602001828054610903906113ee565b80156109505780601f1061092557610100808354040283529160200191610950565b820191906000526020600020905b81548152906001019060200180831161093357829003601f168201915b50505050508152602001600182018054610969906113ee565b80601f0160208091040260200160405190810160405280929190818152602001828054610995906113ee565b80156109e25780601f106109b7576101008083540402835291602001916109e2565b820191906000526020600020905b8154815290600101906020018083116109c557829003601f168201915b505050505081526020016002820160009054906101000a900473ffffffffffffffffffffffffffffffffffffffff1673ffffffffffffffffffffffffffffffffffffffff1673ffffffffffffffffffffffffffffffffffffffff16815260200160038201548152602001600482015481525050815260200190600101906108a4565b50505050905090565b60008054906101000a900473ffffffffffffffffffffffffffffffffffffffff1673ffffffffffffffffffffffffffffffffffffffff163373ffffffffffffffffffffffffffffffffffffffff1614610ac557600080fd5b806000806101000a81548173ffffffffffffffffffffffffffffffffffffffff021916908373ffffffffffffffffffffffffffffffffffffffff16021790555050565b6000604051905090565b600080fd5b600080fd5b600073ffffffffffffffffffffffffffffffffffffffff82169050919050565b6000610b4782610b1c565b9050919050565b610b5781610b3c565b8114610b6257600080fd5b50565b600081359050610b7481610b4e565b92915050565b600060208284031215610b9057610b8f610b12565b5b6000610b9e84828501610b65565b91505092915050565b600081519050919050565b600082825260208201905092915050565b6000819050602082019050919050565b6000610bde82610b1c565b9050919050565b610bee81610bd3565b82525050565b6000819050919050565b610c0781610bf4565b82525050565b604082016000820151610c236000850182610be5565b506020820151610c366020850182610bfe565b50505050565b6000610c488383610c0d565b60408301905092915050565b6000602082019050919050565b6000610c6c82610ba7565b610c768185610bb2565b9350610c8183610bc3565b8060005b83811015610cb2578151610c998882610c3c565b9750610ca483610c54565b925050600181019050610c85565b5085935050505092915050565b60006020820190508181036000830152610cd98184610c61565b905092915050565b610cea81610bf4565b8114610cf557600080fd5b50565b600081359050610d0781610ce1565b92915050565b610d1681610bd3565b8114610d2157600080fd5b50565b600081359050610d3381610d0d565b92915050565b60008060408385031215610d5057610d4f610b12565b5b6000610d5e85828601610cf8565b9250506020610d6f85828601610d24565b9150509250929050565b600080fd5b600080fd5b6000601f19601f8301169050919050565b7f4e487b7100000000000000000000000000000000000000000000000000000000600052604160045260246000fd5b610dcc82610d83565b810181811067ffffffffffffffff82111715610deb57610dea610d94565b5b80604052505050565b6000610dfe610b08565b9050610e0a8282610dc3565b919050565b600067ffffffffffffffff821115610e2a57610e29610d94565b5b610e3382610d83565b9050602081019050919050565b82818337600083830152505050565b6000610e62610e5d84610e0f565b610df4565b905082815260208101848484011115610e7e57610e7d610d7e565b5b610e89848285610e40565b509392505050565b600082601f830112610ea657610ea5610d79565b5b8135610eb6848260208601610e4f565b91505092915050565b60008060008060808587031215610ed957610ed8610b12565b5b600085013567ffffffffffffffff811115610ef757610ef6610b17565b5b610f0387828801610e91565b945050602085013567ffffffffffffffff811115610f2457610f23610b17565b5b610f3087828801610e91565b9350506040610f4187828801610d24565b9250506060610f5287828801610cf8565b91505092959194509250565b600081519050919050565b600082825260208201905092915050565b6000819050602082019050919050565b604082016000820151610fa06000850182610bfe565b506020820151610fb36020850182610be5565b50505050565b6000610fc58383610f8a565b60408301905092915050565b6000602082019050919050565b6000610fe982610f5e565b610ff38185610f69565b9350610ffe83610f7a565b8060005b8381101561102f5781516110168882610fb9565b975061102183610fd1565b925050600181019050611002565b5085935050505092915050565b600060208201905081810360008301526110568184610fde565b905092915050565b61106781610bd3565b82525050565b6000602082019050611082600083018461105e565b92915050565b600081519050919050565b600082825260208201905092915050565b6000819050602082019050919050565b60006110c08383610be5565b60208301905092915050565b6000602082019050919050565b60006110e482611088565b6110ee8185611093565b93506110f9836110a4565b8060005b8381101561112a57815161111188826110b4565b975061111c836110cc565b9250506001810190506110fd565b5085935050505092915050565b6000602082019050818103600083015261115181846110d9565b905092915050565b61116281610bf4565b82525050565b600060208201905061117d6000830184611159565b92915050565b600081519050919050565b600082825260208201905092915050565b6000819050602082019050919050565b600081519050919050565b600082825260208201905092915050565b60005b838110156111e95780820151818401526020810190506111ce565b60008484015250505050565b6000611200826111af565b61120a81856111ba565b935061121a8185602086016111cb565b61122381610d83565b840191505092915050565b600060a083016000830151848203600086015261124b82826111f5565b9150506020830151848203602086015261126582826111f5565b915050604083015161127a6040860182610be5565b50606083015161128d6060860182610bfe565b5060808301516112a06080860182610bfe565b508091505092915050565b60006112b7838361122e565b905092915050565b6000602082019050919050565b60006112d782611183565b6112e1818561118e565b9350836020820285016112f38561119f565b8060005b8581101561132f578484038952815161131085826112ab565b945061131b836112bf565b925060208a019950506001810190506112f7565b50829750879550505050505092915050565b6000602082019050818103600083015261135b81846112cc565b905092915050565b60006020828403121561137957611378610b12565b5b600061138784828501610d24565b91505092915050565b7f4e487b7100000000000000000000000000000000000000000000000000000000600052603260045260246000fd5b7f4e487b7100000000000000000000000000000000000000000000000000000000600052602260045260246000fd5b6000600282049050600182168061140657607f821691505b602082108103611419576114186113bf565b5b50919050565b60008190508160005260206000209050919050565b60006020601f8301049050919050565b600082821b905092915050565b6000600883026114817fffffffffffffffffffffffffffffffffffffffffffffffffffffffffffffffff82611444565b61148b8683611444565b95508019841693508086168417925050509392505050565b6000819050919050565b60006114c86114c36114be84610bf4565b6114a3565b610bf4565b9050919050565b6000819050919050565b6114e2836114ad565b6114f66114ee826114cf565b848454611451565b825550505050565b600090565b61150b6114fe565b6115168184846114d9565b505050565b5b8181101561153a5761152f600082611503565b60018101905061151c565b5050565b601f82111561157f576115508161141f565b61155984611434565b81016020851015611568578190505b61157c61157485611434565b83018261151b565b50505b505050565b600082821c905092915050565b60006115a260001984600802611584565b1980831691505092915050565b60006115bb8383611591565b9150826002028217905092915050565b6115d4826111af565b67ffffffffffffffff8111156115ed576115ec610d94565b5b6115f782546113ee565b61160282828561153e565b600060209050601f8311600181146116355760008415611623578287015190505b61162d85826115af565b865550611695565b601f1984166116438661141f565b60005b8281101561166b57848901518255600182019150602085019450602081019050611646565b868310156116885784890151611684601f891682611591565b8355505b6001600288020188555050505b505050505050565b7f4e487b7100000000000000000000000000000000000000000000000000000000600052601160045260246000fd5b60006116d782610bf4565b91507fffffffffffffffffffffffffffffffffffffffffffffffffffffffffffffffff82036117095761170861169d565b5b60018201905091905056fea2646970667358221220c9b96a9a5f3d3762c1ed1af0cdb241d0496a29a570f6d7b0e75d907236f7088064736f6c63430008110033",
  "immutableReferences": {},
  "source": "// SPDX-License-Identifier: MIT\r\npragma solidity >=0.4.22 <0.9.0;\r\n\r\ncontract MainContract{\r\n\r\n    address public owner;\r\n    uint256 public authorizedListSize;\r\n    // uint256 public temp;\r\n\r\n    constructor(){\r\n        owner = msg.sender;\r\n        AuthorizedNGO memory newAuthorizedNGO = AuthorizedNGO(1, 0xf7937137330Bd9C8d630AEa211e251433c4fdC72);\r\n        authorizedList.push(newAuthorizedNGO);\r\n    }\r\n    \r\n    struct NGO{\r\n        string name;\r\n        string description;\r\n        address wallet;\r\n        uint256 registrationNumber;\r\n        uint256 upvotes;\r\n    }\r\n\r\n    struct AuthorizedNGO{\r\n        uint256 registrationNumber;\r\n        address wallet;\r\n    }\r\n\r\n    struct donationRecord{\r\n        // uint256 registrationNumber;\r\n        address wallet;\r\n        uint256 amount;\r\n    }\r\n\r\n    mapping(address => donationRecord[]) donationRecords;  \r\n    AuthorizedNGO[] authorizedList;\r\n    NGO[] enrolledNGOs;\r\n    address[] donorAddresses;\r\n\r\n    function addToAuthorizedNGO(uint256 registrationNumber, address wallet) public {\r\n        require(msg.sender == owner);\r\n        AuthorizedNGO memory newAuthorizedNGO = AuthorizedNGO(registrationNumber, wallet);\r\n        authorizedList.push(newAuthorizedNGO);\r\n    }\r\n\r\n    function enrollAsNGO(string memory name, string memory description, address  wallet, uint256 registrationNumber ) external {\r\n        require(msg.sender == wallet);\r\n        \r\n        for (uint i = 0; i < authorizedListSize; i++) {\r\n            AuthorizedNGO memory currentNGO = authorizedList[i];\r\n            if(currentNGO.registrationNumber == registrationNumber){\r\n                NGO memory newNGO = NGO(name, description, wallet, registrationNumber, 0);\r\n                enrolledNGOs.push(newNGO);\r\n            }\r\n        }\r\n    }\r\n\r\n    function getOwner() public view returns(address){\r\n        return owner;\r\n    }\r\n\r\n    function getAuthorizedList() public view returns(AuthorizedNGO[] memory){\r\n        return authorizedList;\r\n    } \r\n\r\n    function changeOwner(address _newOwner) public {\r\n        require(msg.sender == owner);\r\n        owner = _newOwner;\r\n    }\r\n\r\n    function getNGOList() external view returns(NGO[] memory) {\r\n        return enrolledNGOs;\r\n    }\r\n\r\n    function getDonors() external view returns(address[] memory){\r\n        return donorAddresses;\r\n    }\r\n\r\n    function myDonations() public payable returns(donationRecord[] memory){\r\n        return donationRecords[msg.sender];\r\n    }\r\n\r\n    \r\n    function donate(address payable ngoWallet) external payable {\r\n        uint256 amount = msg.value;\r\n        require(amount > 0);\r\n        ngoWallet.transfer(msg.value);\r\n        // donorAddresses.push(msg.sender);\r\n        donationRecord memory newDonationRecord = donationRecord( ngoWallet, msg.value);\r\n        // donationRecord[] memory temp = new donationRecord[](1);\r\n        // temp.push(newDonationRecord);\r\n        // if(donationRecords[msg.sender] =)\r\n        // donationRecords[msg.sender] = new donationRecord[](1);\r\n        // donationRecords[msg.sender].push(newDonationRecord);\r\n        // donationRecords[msg.sender] = temp;\r\n        \r\n\r\n        // for (uint i = 0; i < authorizedList.length; i++) {\r\n        //     AuthorizedNGO memory currentNGO = authorizedList[i];\r\n        //     if(currentNGO.wallet == ngoWallet){\r\n        //     }\r\n        // }\r\n    }\r\n\r\n}\r\n",
  "sourcePath": "D:\\Anshul\\COLLEGE_STUDY_MATERIAL\\sem6\\semp_project\\sempII\\truffle\\contracts\\MainContract.sol",
  "compiler": {
    "name": "solc",
    "version": "0.8.17+commit.8df45f5f.Emscripten.clang"
  },
  "schemaVersion": "3.4.11",
  "updatedAt": "2023-03-24T16:56:03.008Z",
  "networkType": "ethereum",
  "devdoc": {
    "kind": "dev",
    "methods": {},
    "version": 1
  },
  "userdoc": {
    "kind": "user",
    "methods": {},
    "version": 1
  }
}